{
  "contractName": "DAICO_Project",
  "abi": [
    {
      "constant": true,
      "inputs": [],
      "name": "maxInvest",
      "outputs": [
        {
          "name": "",
          "type": "uint256"
        }
      ],
      "payable": false,
      "stateMutability": "view",
      "type": "function"
    },
    {
      "constant": true,
      "inputs": [],
      "name": "goal",
      "outputs": [
        {
          "name": "",
          "type": "uint256"
        }
      ],
      "payable": false,
      "stateMutability": "view",
      "type": "function"
    },
    {
      "constant": true,
      "inputs": [],
      "name": "minInvest",
      "outputs": [
        {
          "name": "",
          "type": "uint256"
        }
      ],
      "payable": false,
      "stateMutability": "view",
      "type": "function"
    },
    {
      "constant": true,
      "inputs": [
        {
          "name": "",
          "type": "address"
        }
      ],
      "name": "investors",
      "outputs": [
        {
          "name": "",
          "type": "uint256"
        }
      ],
      "payable": false,
      "stateMutability": "view",
      "type": "function"
    },
    {
      "constant": true,
      "inputs": [],
      "name": "description",
      "outputs": [
        {
          "name": "",
          "type": "string"
        }
      ],
      "payable": false,
      "stateMutability": "view",
      "type": "function"
    },
    {
      "constant": true,
      "inputs": [
        {
          "name": "",
          "type": "uint256"
        }
      ],
      "name": "payments",
      "outputs": [
        {
          "name": "description",
          "type": "string"
        },
        {
          "name": "amount",
          "type": "uint256"
        },
        {
          "name": "receiver",
          "type": "address"
        },
        {
          "name": "completed",
          "type": "bool"
        },
        {
          "name": "voterCount",
          "type": "uint256"
        }
      ],
      "payable": false,
      "stateMutability": "view",
      "type": "function"
    },
    {
      "constant": true,
      "inputs": [],
      "name": "owner",
      "outputs": [
        {
          "name": "",
          "type": "address"
        }
      ],
      "payable": false,
      "stateMutability": "view",
      "type": "function"
    },
    {
      "constant": true,
      "inputs": [],
      "name": "investorCount",
      "outputs": [
        {
          "name": "",
          "type": "uint256"
        }
      ],
      "payable": false,
      "stateMutability": "view",
      "type": "function"
    },
    {
      "inputs": [
        {
          "name": "_description",
          "type": "string"
        },
        {
          "name": "_minInvest",
          "type": "uint256"
        },
        {
          "name": "_maxInvest",
          "type": "uint256"
        },
        {
          "name": "_goal",
          "type": "uint256"
        },
        {
          "name": "_owner",
          "type": "address"
        }
      ],
      "payable": false,
      "stateMutability": "nonpayable",
      "type": "constructor"
    },
    {
      "constant": false,
      "inputs": [],
      "name": "contribute",
      "outputs": [],
      "payable": true,
      "stateMutability": "payable",
      "type": "function"
    },
    {
      "constant": false,
      "inputs": [
        {
          "name": "_description",
          "type": "string"
        },
        {
          "name": "_amount",
          "type": "uint256"
        },
        {
          "name": "_receiver",
          "type": "address"
        }
      ],
      "name": "createPayment",
      "outputs": [],
      "payable": false,
      "stateMutability": "nonpayable",
      "type": "function"
    },
    {
      "constant": false,
      "inputs": [
        {
          "name": "index",
          "type": "uint256"
        }
      ],
      "name": "voteForPayment",
      "outputs": [],
      "payable": false,
      "stateMutability": "nonpayable",
      "type": "function"
    },
    {
      "constant": false,
      "inputs": [
        {
          "name": "index",
          "type": "uint256"
        }
      ],
      "name": "doPay",
      "outputs": [],
      "payable": false,
      "stateMutability": "nonpayable",
      "type": "function"
    }
  ],
  "bytecode": "0x608060405234801561001057600080fd5b5060405162000f2238038062000f22833981018060405260a081101561003557600080fd5b81019080805164010000000081111561004d57600080fd5b8281019050602081018481111561006357600080fd5b815185600182028301116401000000008211171561008057600080fd5b505092919060200180519060200190929190805190602001909291908051906020019092919080519060200190929190505050806000806101000a81548173ffffffffffffffffffffffffffffffffffffffff021916908373ffffffffffffffffffffffffffffffffffffffff1602179055508460019080519060200190610109929190610129565b5083600381905550826002819055508160048190555050505050506101ce565b828054600181600116156101000203166002900490600052602060002090601f016020900481019282601f1061016a57805160ff1916838001178555610198565b82800160010185558215610198579182015b8281111561019757825182559160200191906001019061017c565b5b5090506101a591906101a9565b5090565b6101cb91905b808211156101c75760008160009055506001016101af565b5090565b90565b610d4480620001de6000396000f3fe6080604052600436106100ba576000357c0100000000000000000000000000000000000000000000000000000000900463ffffffff16806303120d46146100bf578063101498a3146101b15780633110235a146101ec578063401938831461021757806363fd9e38146102425780636cbad77e1461026d5780636f7bc9be146102a85780637284e4161461030d57806387d817891461039d5780638da5cb5b1461049d578063d7bb99ba146104f4578063d7e64c00146104fe575b600080fd5b3480156100cb57600080fd5b506101af600480360360608110156100e257600080fd5b81019080803590602001906401000000008111156100ff57600080fd5b82018360208201111561011157600080fd5b8035906020019184600183028401116401000000008311171561013357600080fd5b91908080601f016020809104026020016040519081016040528093929190818152602001838380828437600081840152601f19601f82011690508083019250505050505050919291929080359060200190929190803573ffffffffffffffffffffffffffffffffffffffff169060200190929190505050610529565b005b3480156101bd57600080fd5b506101ea600480360360208110156101d457600080fd5b81019080803590602001909291905050506106a1565b005b3480156101f857600080fd5b506102016107dc565b6040518082815260200191505060405180910390f35b34801561022357600080fd5b5061022c6107e2565b6040518082815260200191505060405180910390f35b34801561024e57600080fd5b506102576107e8565b6040518082815260200191505060405180910390f35b34801561027957600080fd5b506102a66004803603602081101561029057600080fd5b81019080803590602001909291905050506107ee565b005b3480156102b457600080fd5b506102f7600480360360208110156102cb57600080fd5b81019080803573ffffffffffffffffffffffffffffffffffffffff16906020019092919050505061095a565b6040518082815260200191505060405180910390f35b34801561031957600080fd5b50610322610972565b6040518080602001828103825283818151815260200191508051906020019080838360005b83811015610362578082015181840152602081019050610347565b50505050905090810190601f16801561038f5780820380516001836020036101000a031916815260200191505b509250505060405180910390f35b3480156103a957600080fd5b506103d6600480360360208110156103c057600080fd5b8101908080359060200190929190505050610a10565b60405180806020018681526020018573ffffffffffffffffffffffffffffffffffffffff1673ffffffffffffffffffffffffffffffffffffffff16815260200184151515158152602001838152602001828103825287818151815260200191508051906020019080838360005b8381101561045e578082015181840152602081019050610443565b50505050905090810190601f16801561048b5780820380516001836020036101000a031916815260200191505b50965050505050505060405180910390f35b3480156104a957600080fd5b506104b2610b1a565b604051808273ffffffffffffffffffffffffffffffffffffffff1673ffffffffffffffffffffffffffffffffffffffff16815260200191505060405180910390f35b6104fc610b3f565b005b34801561050a57600080fd5b50610513610c04565b6040518082815260200191505060405180910390f35b6000809054906101000a900473ffffffffffffffffffffffffffffffffffffffff1673ffffffffffffffffffffffffffffffffffffffff163373ffffffffffffffffffffffffffffffffffffffff1614151561058457600080fd5b8161058d610c2b565b60a0604051908101604052808681526020018581526020018473ffffffffffffffffffffffffffffffffffffffff1681526020016000151581526020016000815250905060078190806001815401808255809150509060018203906000526020600020906005020160009091929091909150600082015181600001908051906020019061061b929190610c73565b506020820151816001015560408201518160020160006101000a81548173ffffffffffffffffffffffffffffffffffffffff021916908373ffffffffffffffffffffffffffffffffffffffff16021790555060608201518160020160146101000a81548160ff021916908315150217905550608082015181600401555050505050505050565b60006007828154811015156106b257fe5b906000526020600020906005020190506000600660003373ffffffffffffffffffffffffffffffffffffffff1673ffffffffffffffffffffffffffffffffffffffff1681526020019081526020016000205411151561071057600080fd5b8060030160003373ffffffffffffffffffffffffffffffffffffffff1673ffffffffffffffffffffffffffffffffffffffff16815260200190815260200160002060009054906101000a900460ff1615151561076b57600080fd5b60018160030160003373ffffffffffffffffffffffffffffffffffffffff1673ffffffffffffffffffffffffffffffffffffffff16815260200190815260200160002060006101000a81548160ff021916908315150217905550600181600401600082825401925050819055505050565b60025481565b60045481565b60035481565b6000809054906101000a900473ffffffffffffffffffffffffffffffffffffffff1673ffffffffffffffffffffffffffffffffffffffff163373ffffffffffffffffffffffffffffffffffffffff1614151561084957600080fd5b60078181548110151561085857fe5b906000526020600020906005020160010154600060078381548110151561087b57fe5b906000526020600020906005020190508060020160149054906101000a900460ff161515156108a957600080fd5b60026005548115156108b757fe5b0481600401541115156108c957600080fd5b8060020160009054906101000a900473ffffffffffffffffffffffffffffffffffffffff1673ffffffffffffffffffffffffffffffffffffffff166108fc82600101549081150290604051600060405180830381858888f19350505050158015610937573d6000803e3d6000fd5b5060018160020160146101000a81548160ff021916908315150217905550505050565b60066020528060005260406000206000915090505481565b60018054600181600116156101000203166002900480601f016020809104026020016040519081016040528092919081815260200182805460018160011615610100020316600290048015610a085780601f106109dd57610100808354040283529160200191610a08565b820191906000526020600020905b8154815290600101906020018083116109eb57829003601f168201915b505050505081565b600781815481101515610a1f57fe5b9060005260206000209060050201600091509050806000018054600181600116156101000203166002900480601f016020809104026020016040519081016040528092919081815260200182805460018160011615610100020316600290048015610acb5780601f10610aa057610100808354040283529160200191610acb565b820191906000526020600020905b815481529060010190602001808311610aae57829003601f168201915b5050505050908060010154908060020160009054906101000a900473ffffffffffffffffffffffffffffffffffffffff16908060020160149054906101000a900460ff16908060040154905085565b6000809054906101000a900473ffffffffffffffffffffffffffffffffffffffff1681565b6003543410151515610b5057600080fd5b6002543411151515610b6157600080fd5b6000809050610b90343073ffffffffffffffffffffffffffffffffffffffff1631610c0a90919063ffffffff16565b90506004548111151515610ba357600080fd5b34600660003373ffffffffffffffffffffffffffffffffffffffff1673ffffffffffffffffffffffffffffffffffffffff16815260200190815260200160002060008282540192505081905550600160056000828254019250508190555050565b60055481565b6000808284019050838110151515610c2157600080fd5b8091505092915050565b60a0604051908101604052806060815260200160008152602001600073ffffffffffffffffffffffffffffffffffffffff168152602001600015158152602001600081525090565b828054600181600116156101000203166002900490600052602060002090601f016020900481019282601f10610cb457805160ff1916838001178555610ce2565b82800160010185558215610ce2579182015b82811115610ce1578251825591602001919060010190610cc6565b5b509050610cef9190610cf3565b5090565b610d1591905b80821115610d11576000816000905550600101610cf9565b5090565b9056fea165627a7a72305820167e89f41a0c633d34a420a17f8b19d3c75f6700bde0aab80520e8f2d7c5a8a50029",
  "source": "pragma solidity ^0.5.0;\nimport \"./SafeMath.sol\";\n\n//Project for DAICO\n\ncontract DAICO_Project {\n    using SafeMath for uint;\n\n    //to check the function caller is owner\n    modifier ownerOnly(){\n        require( msg.sender == owner);\n        _;\n    }\n\n    //to check the balance is enough\n    modifier enoughBalance(uint amount){\n        address(this).balance >= amount;\n        _;\n    }\n\n    struct Payment{\n        string description;\n        uint amount;\n        address payable receiver;\n        bool completed;\n        //address[] voters;\n        mapping(address=>bool) voters;\n        uint voterCount;\n    }\n\n    address public owner;\n    string public description;\n    uint public maxInvest;\n    uint public minInvest;\n    uint public goal;\n    //address[] public investors;\n    uint public investorCount;\n    mapping (address=>uint) public investors;\n\n    Payment[] public payments;\n\n    constructor(string memory _description, uint _minInvest, uint _maxInvest, uint _goal, address _owner)\n        public\n    {\n        owner       =  _owner;\n        description = _description;\n        minInvest   = _minInvest;\n        maxInvest   = _maxInvest;\n        goal        = _goal;\n    }\n\n    function contribute()\n        public\n        payable\n    {\n\n        //money amount checking\n        require(msg.value >= minInvest);\n        require(msg.value <= maxInvest);\n\n        //require(address(this).balance <= goal);\n        //using SafeMath to protect overflow\n        uint newBalance = 0;\n        newBalance = address(this).balance.add(msg.value);\n        require(newBalance <= goal);\n\n        //add msg sender to the investor list \n        // xxxxxxxxx => xxxx wei\n        // example:\n        // 5D35F3e..D => 100000 wei\n        //bug fix: allow investors to invest more than one time\n        //and the total invest amount accumulating correctly\n        investors[msg.sender] += msg.value;\n        investorCount += 1;\n    }\n\n    // generate a payment\n    function createPayment(string memory _description, uint _amount, address payable _receiver)\n        public \n        ownerOnly\n        enoughBalance(_amount)\n    {\n\n        // build a payment\n        Payment memory newPayment = Payment({\n            description : _description,\n            amount: _amount,\n            receiver: _receiver,\n            completed: false,\n            voterCount:0\n        });\n\n        // push payments\n        payments.push(newPayment);\n    }\n\n    //\n    function voteForPayment(uint index)\n        public\n    {\n        Payment storage payment = payments[index];\n        \n        //check is investor\n        require(investors[msg.sender]>0);\n\n        //can't now vote twice\n        require(!payment.voters[msg.sender]);\n\n        //set the voter's right to false\n        payment.voters[msg.sender] = true;\n        \n        payment.voterCount += 1;\n    }\n\n    function doPay(uint index)\n        public\n        ownerOnly\n        enoughBalance(payments[index].amount)\n    {\n\n        Payment storage payment = payments[index];\n\n        //project must be incompleted\n        require(!payment.completed);\n\n        //voter must more than half of investors\n        require(payment.voterCount > (investorCount/2));\n\n        //transfer the money\n        payment.receiver.transfer(payment.amount);\n\n        //set the payment to completed    \n        payment.completed = true;\n    }\n}",
  "sourcePath": "/Users/kevin/Dropbox/works/dev/DAICO-Dapp/contracts/DAICO_project.sol",
  "compiler": {
    "name": "solc",
    "version": "0.5.0+commit.1d4f565a.Emscripten.clang"
  },
  "schemaVersion": "3.0.6",
  "updatedAt": "2019-05-06T10:19:08.208Z",
  "devdoc": {
    "methods": {}
  },
  "userdoc": {
    "methods": {}
  }
}