{
  "contractName": "DAICO",
  "abi": [
    {
      "constant": true,
      "inputs": [],
      "name": "maxInvest",
      "outputs": [
        {
          "name": "",
          "type": "uint256"
        }
      ],
      "payable": false,
      "stateMutability": "view",
      "type": "function",
      "signature": "0x3110235a"
    },
    {
      "constant": true,
      "inputs": [
        {
          "name": "",
          "type": "uint256"
        }
      ],
      "name": "investors",
      "outputs": [
        {
          "name": "",
          "type": "address"
        }
      ],
      "payable": false,
      "stateMutability": "view",
      "type": "function",
      "signature": "0x3feb5f2b"
    },
    {
      "constant": true,
      "inputs": [],
      "name": "goal",
      "outputs": [
        {
          "name": "",
          "type": "uint256"
        }
      ],
      "payable": false,
      "stateMutability": "view",
      "type": "function",
      "signature": "0x40193883"
    },
    {
      "constant": true,
      "inputs": [],
      "name": "minInvest",
      "outputs": [
        {
          "name": "",
          "type": "uint256"
        }
      ],
      "payable": false,
      "stateMutability": "view",
      "type": "function",
      "signature": "0x63fd9e38"
    },
    {
      "constant": true,
      "inputs": [],
      "name": "description",
      "outputs": [
        {
          "name": "",
          "type": "string"
        }
      ],
      "payable": false,
      "stateMutability": "view",
      "type": "function",
      "signature": "0x7284e416"
    },
    {
      "constant": true,
      "inputs": [
        {
          "name": "",
          "type": "uint256"
        }
      ],
      "name": "payments",
      "outputs": [
        {
          "name": "description",
          "type": "string"
        },
        {
          "name": "amount",
          "type": "uint256"
        },
        {
          "name": "receiver",
          "type": "address"
        },
        {
          "name": "completed",
          "type": "bool"
        }
      ],
      "payable": false,
      "stateMutability": "view",
      "type": "function",
      "signature": "0x87d81789"
    },
    {
      "constant": true,
      "inputs": [],
      "name": "owner",
      "outputs": [
        {
          "name": "",
          "type": "address"
        }
      ],
      "payable": false,
      "stateMutability": "view",
      "type": "function",
      "signature": "0x8da5cb5b"
    },
    {
      "inputs": [
        {
          "name": "_description",
          "type": "string"
        },
        {
          "name": "_minInvest",
          "type": "uint256"
        },
        {
          "name": "_maxInvest",
          "type": "uint256"
        },
        {
          "name": "_goal",
          "type": "uint256"
        }
      ],
      "payable": false,
      "stateMutability": "nonpayable",
      "type": "constructor",
      "signature": "constructor"
    },
    {
      "constant": false,
      "inputs": [],
      "name": "contribute",
      "outputs": [],
      "payable": true,
      "stateMutability": "payable",
      "type": "function",
      "signature": "0xd7bb99ba"
    },
    {
      "constant": false,
      "inputs": [
        {
          "name": "_description",
          "type": "string"
        },
        {
          "name": "_amount",
          "type": "uint256"
        },
        {
          "name": "_receiver",
          "type": "address"
        }
      ],
      "name": "createPayment",
      "outputs": [],
      "payable": false,
      "stateMutability": "nonpayable",
      "type": "function",
      "signature": "0x03120d46"
    },
    {
      "constant": false,
      "inputs": [
        {
          "name": "index",
          "type": "uint256"
        }
      ],
      "name": "approvePayment",
      "outputs": [],
      "payable": false,
      "stateMutability": "nonpayable",
      "type": "function",
      "signature": "0xde14c818"
    },
    {
      "constant": false,
      "inputs": [
        {
          "name": "index",
          "type": "uint256"
        }
      ],
      "name": "doPay",
      "outputs": [],
      "payable": false,
      "stateMutability": "nonpayable",
      "type": "function",
      "signature": "0x6cbad77e"
    }
  ],
  "bytecode": "0x60806040523480156200001157600080fd5b5060405162000fca38038062000fca833981018060405260808110156200003757600080fd5b8101908080516401000000008111156200005057600080fd5b828101905060208101848111156200006757600080fd5b81518560018202830111640100000000821117156200008557600080fd5b5050929190602001805190602001909291908051906020019092919080519060200190929190505050336000806101000a81548173ffffffffffffffffffffffffffffffffffffffff021916908373ffffffffffffffffffffffffffffffffffffffff16021790555083600190805190602001906200010692919062000126565b5082600381905550816002819055508060048190555050505050620001d5565b828054600181600116156101000203166002900490600052602060002090601f016020900481019282601f106200016957805160ff19168380011785556200019a565b828001600101855582156200019a579182015b82811115620001995782518255916020019190600101906200017c565b5b509050620001a99190620001ad565b5090565b620001d291905b80821115620001ce576000816000905550600101620001b4565b5090565b90565b610de580620001e56000396000f3fe6080604052600436106100af576000357c0100000000000000000000000000000000000000000000000000000000900463ffffffff16806303120d46146100b45780633110235a146101a65780633feb5f2b146101d1578063401938831461024c57806363fd9e38146102775780636cbad77e146102a25780637284e416146102dd57806387d817891461036d5780638da5cb5b14610466578063d7bb99ba146104bd578063de14c818146104c7575b600080fd5b3480156100c057600080fd5b506101a4600480360360608110156100d757600080fd5b81019080803590602001906401000000008111156100f457600080fd5b82018360208201111561010657600080fd5b8035906020019184600183028401116401000000008311171561012857600080fd5b91908080601f016020809104026020016040519081016040528093929190818152602001838380828437600081840152601f19601f82011690508083019250505050505050919291929080359060200190929190803573ffffffffffffffffffffffffffffffffffffffff169060200190929190505050610502565b005b3480156101b257600080fd5b506101bb61065f565b6040518082815260200191505060405180910390f35b3480156101dd57600080fd5b5061020a600480360360208110156101f457600080fd5b8101908080359060200190929190505050610665565b604051808273ffffffffffffffffffffffffffffffffffffffff1673ffffffffffffffffffffffffffffffffffffffff16815260200191505060405180910390f35b34801561025857600080fd5b506102616106a3565b6040518082815260200191505060405180910390f35b34801561028357600080fd5b5061028c6106a9565b6040518082815260200191505060405180910390f35b3480156102ae57600080fd5b506102db600480360360208110156102c557600080fd5b81019080803590602001909291905050506106af565b005b3480156102e957600080fd5b506102f26107a4565b6040518080602001828103825283818151815260200191508051906020019080838360005b83811015610332578082015181840152602081019050610317565b50505050905090810190601f16801561035f5780820380516001836020036101000a031916815260200191505b509250505060405180910390f35b34801561037957600080fd5b506103a66004803603602081101561039057600080fd5b8101908080359060200190929190505050610842565b60405180806020018581526020018473ffffffffffffffffffffffffffffffffffffffff1673ffffffffffffffffffffffffffffffffffffffff16815260200183151515158152602001828103825286818151815260200191508051906020019080838360005b8381101561042857808201518184015260208101905061040d565b50505050905090810190601f1680156104555780820380516001836020036101000a031916815260200191505b509550505050505060405180910390f35b34801561047257600080fd5b5061047b610946565b604051808273ffffffffffffffffffffffffffffffffffffffff1673ffffffffffffffffffffffffffffffffffffffff16815260200191505060405180910390f35b6104c561096b565b005b3480156104d357600080fd5b50610500600480360360208110156104ea57600080fd5b8101908080359060200190929190505050610a1d565b005b61050a610bff565b60a0604051908101604052808581526020018481526020018373ffffffffffffffffffffffffffffffffffffffff16815260200160001515815260200160006040519080825280602002602001820160405280156105775781602001602082028038833980820191505090505b5081525090506006819080600181540180825580915050906001820390600052602060002090600402016000909192909190915060008201518160000190805190602001906105c7929190610c47565b506020820151816001015560408201518160020160006101000a81548173ffffffffffffffffffffffffffffffffffffffff021916908373ffffffffffffffffffffffffffffffffffffffff16021790555060608201518160020160146101000a81548160ff0219169083151502179055506080820151816003019080519060200190610655929190610cc7565b5050505050505050565b60025481565b60058181548110151561067457fe5b906000526020600020016000915054906101000a900473ffffffffffffffffffffffffffffffffffffffff1681565b60045481565b60035481565b60006006828154811015156106c057fe5b906000526020600020906004020190508060020160149054906101000a900460ff161515156106ee57600080fd5b60026005805490508115156106ff57fe5b04816003018054905011151561071457600080fd5b8060020160009054906101000a900473ffffffffffffffffffffffffffffffffffffffff1673ffffffffffffffffffffffffffffffffffffffff166108fc82600101549081150290604051600060405180830381858888f19350505050158015610782573d6000803e3d6000fd5b5060018160020160146101000a81548160ff0219169083151502179055505050565b60018054600181600116156101000203166002900480601f01602080910402602001604051908101604052809291908181526020018280546001816001161561010002031660029004801561083a5780601f1061080f5761010080835404028352916020019161083a565b820191906000526020600020905b81548152906001019060200180831161081d57829003601f168201915b505050505081565b60068181548110151561085157fe5b9060005260206000209060040201600091509050806000018054600181600116156101000203166002900480601f0160208091040260200160405190810160405280929190818152602001828054600181600116156101000203166002900480156108fd5780601f106108d2576101008083540402835291602001916108fd565b820191906000526020600020905b8154815290600101906020018083116108e057829003601f168201915b5050505050908060010154908060020160009054906101000a900473ffffffffffffffffffffffffffffffffffffffff16908060020160149054906101000a900460ff16905084565b6000809054906101000a900473ffffffffffffffffffffffffffffffffffffffff1681565b600354341015151561097c57600080fd5b600254341115151561098d57600080fd5b6004543073ffffffffffffffffffffffffffffffffffffffff1631111515156109b557600080fd5b60053390806001815401808255809150509060018203906000526020600020016000909192909190916101000a81548173ffffffffffffffffffffffffffffffffffffffff021916908373ffffffffffffffffffffffffffffffffffffffff16021790555050565b6000600682815481101515610a2e57fe5b90600052602060002090600402019050600080905060008090505b600580549050811015610ad8573373ffffffffffffffffffffffffffffffffffffffff16600582815481101515610a7c57fe5b9060005260206000200160009054906101000a900473ffffffffffffffffffffffffffffffffffffffff1673ffffffffffffffffffffffffffffffffffffffff161491508115610acb57610ad8565b8080600101915050610a49565b50801515610ae557600080fd5b600080905060008090505b8360030180549050811015610b83573373ffffffffffffffffffffffffffffffffffffffff168460030182815481101515610b2757fe5b9060005260206000200160009054906101000a900473ffffffffffffffffffffffffffffffffffffffff1673ffffffffffffffffffffffffffffffffffffffff161491508115610b7657610b83565b8080600101915050610af0565b5080151515610b9157600080fd5b826003013390806001815401808255809150509060018203906000526020600020016000909192909190916101000a81548173ffffffffffffffffffffffffffffffffffffffff021916908373ffffffffffffffffffffffffffffffffffffffff1602179055505050505050565b60a0604051908101604052806060815260200160008152602001600073ffffffffffffffffffffffffffffffffffffffff168152602001600015158152602001606081525090565b828054600181600116156101000203166002900490600052602060002090601f016020900481019282601f10610c8857805160ff1916838001178555610cb6565b82800160010185558215610cb6579182015b82811115610cb5578251825591602001919060010190610c9a565b5b509050610cc39190610d51565b5090565b828054828255906000526020600020908101928215610d40579160200282015b82811115610d3f5782518260006101000a81548173ffffffffffffffffffffffffffffffffffffffff021916908373ffffffffffffffffffffffffffffffffffffffff16021790555091602001919060010190610ce7565b5b509050610d4d9190610d76565b5090565b610d7391905b80821115610d6f576000816000905550600101610d57565b5090565b90565b610db691905b80821115610db257600081816101000a81549073ffffffffffffffffffffffffffffffffffffffff021916905550600101610d7c565b5090565b9056fea165627a7a723058205df95095dd3672a6c90f03225523895753dc2c2321547253876e9bb83161a0e80029",
  "source": "pragma solidity ^0.5.0;\n\n//Project for DAICO\n\ncontract DAICO {\n    struct Payment{\n        string description;\n        uint amount;\n        address payable receiver;\n        bool completed;\n        address[] voters;\n    }\n\n    address public owner;\n    string public description;\n    uint public maxInvest;\n    uint public minInvest;\n    uint public goal;\n    address[] public investors;\n    Payment[] public payments;\n\n    constructor(string memory _description, uint _minInvest, uint _maxInvest, uint _goal) public {\n        owner       = msg.sender;\n        description = _description;\n        minInvest   = _minInvest;\n        maxInvest   = _maxInvest;\n        goal        = _goal;\n    }\n\n    function contribute() public payable {\n\n        //money amount checking\n        require(msg.value >= minInvest);\n        require(msg.value <= maxInvest);\n        require(address(this).balance <= goal);\n\n        //add msg sender to the investor list\n        investors.push(msg.sender);\n    }\n\n    // generate a payment\n    function createPayment(string memory _description, uint _amount, address payable _receiver) public {\n\n        //only contract owner can create the payment\n        //do not checked here.\n\n        // build a payment\n        Payment memory newPayment = Payment({\n            description : _description,\n            amount: _amount,\n            receiver: _receiver,\n            completed: false,\n            voters: new address[](0)\n        });\n\n        // push payments\n        payments.push(newPayment);\n    }\n\n    //\n    function approvePayment(uint index) public {\n        Payment storage payment = payments[index];\n        \n        //check is investor\n        bool isInvestor = false;\n        for(uint i=0;i<investors.length;i++){\n            isInvestor = investors[i] == msg.sender;\n            if(isInvestor){\n                break;\n            }\n        }\n        \n        require(isInvestor);\n\n        bool hasVoted = false;\n        for(uint j=0;j<payment.voters.length;j++){\n            hasVoted = payment.voters[j] == msg.sender;\n            if(hasVoted){\n                break;\n            }\n        }\n\n        require(!hasVoted);\n\n        payment.voters.push(msg.sender);\n    }\n\n    function doPay(uint index) public {\n        Payment storage payment = payments[index];\n\n        //project must be incompleted\n        require(!payment.completed);\n\n        //voter must more than half of investors\n        require(payment.voters.length>(investors.length/2));\n\n        //transfer the money\n        payment.receiver.transfer(payment.amount);\n\n        //set the payment to completed    \n        payment.completed = true;\n    }\n}",
  "sourcePath": "/Users/kevin/Dropbox/works/dev/DAICO-Dapp/contracts/DAICO.sol",
  "compiler": {
    "name": "solc",
    "version": "0.5.0+commit.1d4f565a.Emscripten.clang"
  },
  "schemaVersion": "3.0.6",
  "updatedAt": "2019-04-21T08:20:55.399Z",
  "devdoc": {
    "methods": {}
  },
  "userdoc": {
    "methods": {}
  }
}